:020000040000fa
:080000000002040000000000f2
:020000040000fa
:040008006003000091
:020000040000fa
:04000c00600300008d
:020000040000fa
:040010006003000089
:020000040000fa
:040014006003000085
:020000040000fa
:040018006003000081
:020000040000fa
:04001c00600300007d
:020000040000fa
:040020006003000079
:020000040000fa
:040024006003000075
:020000040000fa
:040028006003000071
:020000040000fa
:04002c00600300006d
:020000040000fa
:040030006003000069
:020000040000fa
:04003400fa020000cc
:020000040000fa
:040038006003000061
:020000040000fa
:04003c00600300005d
:020000040000fa
:040040006003000059
:020000040000fa
:040044006003000055
:020000040000fa
:040048006003000051
:020000040000fa
:04004c00600300004d
:020000040000fa
:040050006003000049
:020000040000fa
:040054006003000045
:020000040000fa
:040058006003000041
:020000040000fa
:04005c00600300003d
:020000040000fa
:040060006003000039
:020000040000fa
:040064006003000035
:020000040000fa
:040068006003000031
:020000040000fa
:04006c00600300002d
:020000040000fa
:040070006003000029
:020000040000fa
:040074006003000025
:020000040000fa
:040078006003000021
:020000040000fa
:04007c00600300001d
:020000040000fa
:040080006003000019
:020000040000fa
:040084006003000015
:020000040000fa
:040088006003000011
:020000040000fa
:04008c00600300000d
:020000040000fa
:040090006003000009
:020000040000fa
:040094006003000005
:020000040000fa
:040098006003000001
:020000040000fa
:04009c0060030000fd
:020000040000fa
:0400a00060030000f9
:020000040000fa
:0400a40060030000f5
:020000040000fa
:0400a80060030000f1
:020000040000fa
:0400ac0060030000ed
:020000040000fa
:0400b00060030000e9
:020000040000fa
:0400b40060030000e5
:020000040000fa
:0400b80060030000e1
:020000040000fa
:0400bc0060030000dd
:020000040000fa
:0400c00060030000d9
:020000040000fa
:0400c40060030000d5
:020000040000fa
:0400c80060030000d1
:020000040000fa
:0400cc0060030000cd
:020000040000fa
:0400d00060030000c9
:020000040000fa
:0400d40060030000c5
:020000040000fa
:0400d80060030000c1
:020000040000fa
:0400dc0060030000bd
:020000040000fa
:0400e00060030000b9
:020000040000fa
:0400e40060030000b5
:020000040000fa
:0400e80060030000b1
:020000040000fa
:0400ec0060030000ad
:020000040000fa
:0400f00060030000a9
:020000040000fa
:0400f40060030000a5
:020000040000fa
:0400f80060030000a1
:020000040000fa
:0400fc00600300009d
:020000040000fa
:040100006003000098
:020000040000fa
:040104006003000094
:020000040000fa
:040108006003000090
:020000040000fa
:04010c00600300008c
:020000040000fa
:040110006003000088
:020000040000fa
:040114006003000084
:020000040000fa
:040118006003000080
:020000040000fa
:04011c00600300007c
:020000040000fa
:040120006003000078
:020000040000fa
:040124006003000074
:020000040000fa
:040128006003000070
:020000040000fa
:04012c00600300006c
:020000040000fa
:040130006003000068
:020000040000fa
:040134006003000064
:020000040000fa
:040138006003000060
:020000040000fa
:04013c00600300005c
:020000040000fa
:040140006003000058
:020000040000fa
:040144006003000054
:020000040000fa
:040148006003000050
:020000040000fa
:04014c00600300004c
:020000040000fa
:040150006003000048
:020000040000fa
:040154006003000044
:020000040000fa
:040158006003000040
:020000040000fa
:04015c00600300003c
:020000040000fa
:040160006003000038
:020000040000fa
:040164006003000034
:020000040000fa
:040168006003000030
:020000040000fa
:04016c00600300002c
:020000040000fa
:040170006003000028
:020000040000fa
:040174006003000024
:020000040000fa
:040178006003000020
:020000040000fa
:04017c00600300001c
:020000040000fa
:040180006003000018
:020000040000fa
:040184006003000014
:020000040000fa
:040188006003000010
:020000040000fa
:04018c00600300000c
:020000040000fa
:040190006003000008
:020000040000fa
:040194006003000004
:020000040000fa
:040198006003000000
:020000040000fa
:04019c0060030000fc
:020000040000fa
:0401a00060030000f8
:020000040000fa
:0401a40060030000f4
:020000040000fa
:0401a80060030000f0
:020000040000fa
:0401ac0060030000ec
:020000040000fa
:0401b00060030000e8
:020000040000fa
:0401b40060030000e4
:020000040000fa
:0401b80060030000e0
:020000040000fa
:0401bc0060030000dc
:020000040000fa
:0401c00060030000d8
:020000040000fa
:0401c40060030000d4
:020000040000fa
:0401c80060030000d0
:020000040000fa
:0401cc0060030000cc
:020000040000fa
:0401d00060030000c8
:020000040000fa
:0401d40060030000c4
:020000040000fa
:0401d80060030000c0
:020000040000fa
:0401dc0060030000bc
:020000040000fa
:0401e00060030000b8
:020000040000fa
:0401e40060030000b4
:020000040000fa
:0401e80060030000b0
:020000040000fa
:0401ec0060030000ac
:020000040000fa
:0401f00060030000a8
:020000040000fa
:0401f40060030000a4
:020000040000fa
:0401f80060030000a0
:020000040000fa
:0401fc00600300009c
:020000040000fa
:040200006003000097
:020000040000fa
:040204006003000093
:020000040000fa
:04020800600300008f
:020000040000fa
:04020c00600300008b
:020000040000fa
:040210006003000087
:020000040000fa
:040214006003000083
:020000040000fa
:04021800600300007f
:020000040000fa
:04021c00600300007b
:020000040000fa
:040220006003000077
:020000040000fa
:040224006003000073
:020000040000fa
:04022800600300006f
:020000040000fa
:04022c00600300006b
:020000040000fa
:040230006003000067
:020000040000fa
:040234006003000063
:020000040000fa
:04023800600300005f
:020000040000fa
:04023c00600300005b
:020000040000fa
:040240006003000057
:020000040000fa
:040244006003000053
:020000040000fa
:04024800600300004f
:020000040000fa
:04024c00600300004b
:020000040000fa
:040250006003000047
:020000040000fa
:040254006003000043
:020000040000fa
:04025800600300003f
:020000040000fa
:04025c00600300003b
:020000040000fa
:040260006003000037
:020000040000fa
:040264006003000033
:020000040000fa
:04026800600300002f
:020000040000fa
:04026c00600300002b
:020000040000fa
:040270006003000027
:020000040000fa
:040274006003000023
:020000040000fa
:04027800600300001f
:020000040000fa
:04027c00600300001b
:020000040000fa
:040280006003000017
:020000040000fa
:100400002f0121000eff24000e01880000000000d3
:10041000000020000000e000020032000001200087
:100420002002880014000700a70007000000e00079
:1004300003003a00c03b200001002000020037000a
:100440000000200001002000810f70000100320038
:100450000f000700000020000000e0000200320052
:1004600000000200000000009c03020000000000e9
:100470000040da000000fe00200020000000e00044
:1004800002003200002020009001880000000600d9
:10049000a1028800800478000000eb001f003700f4
:1004a000e284440054a0b4009905ba00e2844400f8
:1004b00054a0b4009906ba00e284440054a0b400e9
:1004c0000006eb00476fde00fd07b200ae018800ba
:1004d000636ce10003003a000ad801000000eb0061
:1004e0000e003700606ce10008003a00004deb00a0
:1004f0000a05e800020039003420ec000af0a000f0
:100500008b05e900f9ff3e00040037006168e10057
:10051000010032000086eb000b00070019c7ba008b
:100520000e04e0001905ba0003003a000a00e000da
:10053000dbff3a0000000600fe07b200ae028800b2
:100540008a047800f5ff37000cd0a300e20f4d00bd
:100550001c00390089027800354dba000a05e80010
:10056000020039003420ec000af0a0008b05e900fd
:100570000f003200254dba000a05e80002003900dc
:100580003420ec000af0a0008b05e90008003200de
:100590000c00e0000600320015cdba000a05e800a4
:1005a000020039003420ec000af0a0008b05e900bd
:1005b0008984e80054a0b4000b00e000e2ff3a0098
:1005c000000006009902ba00055d78008b05e9007d
:1005d000f7ff3200c82ade00055d78008b05e900d0
:1005e000f3ff32000c00e000f1ff320019ddba0029
:1005f000eeff37003600f800809fbe00829fbe00ed
:10060000849fbe00869fbe003200f8003400f800d0
:1006100010002000a0018800002020009001880028
:10062000000000000068a900608080000000e00079
:1006300004003a000e30a8001000200060808800fe
:10064000060037000000e80060808800411f20009d
:10065000810f500001003a000c30ef001c00070031
:100660000068ab000e003a0042a0a80042c0a900fa
:100670001030ab000a003a000e30ab00060032002a
:100680001030a8000e30a900120007000e30ab0099
:10069000fcff3a001030a90042c0a80042a0a90007
:1006a0003400f9003200f9004f03be004f02be00d3
:1006b0004f01be004f00be003600f90000400600aa
:0c06c0000040da000000fe000000050011
:020000040000fa
:0406cc000210000018
:020000040000fa
:1006d0000000060000d0bf008080fb008100ea001f
:1006e000cf08de004209dd00b3ff2f002470800038
:1006f000848161008301710023708800c308dd00dc
:1007000072ff2f00237080000301610002817000de
:10071000227088000040e800e14f500002003600df
:100720000070ef000000060000f0b70000000600b7
:100730000070ef000000060030ff2f0000708800fe
:10074000fbff07000421ef00f0ff28004008b6007f
:1007500000d0a000004288000068a9002068a8001e
:1007600040e62000100888000000e900000888002a
:0807700005e1a800ffff3700be
:020000040000fa
:10077800001000000a000000800000000a100000bd
:0c078800080000008000000000000000dd
:020000040000fa
:020000040002f8
:04afe000cfff00009f
:020000040000fa
:020000040002f8
:04afe8007fff0000e7
:020000040000fa
:020000040002f8
:04aff000b8ff0000a6
:00000001FF
